:040000006F00901CE1
:10000400000000000000000090000020AA0400206E
:10001400A9BDF9F5900000200000000000000000D8
:10002400900000209000002000000000000000006C
:10003400900000200000000090000020000000005C
:1000440090000020900000209200002090000020EA
:1000540090000020900000209000002090000020DC
:1000640090000020900000209000002090000020CC
:1000740090000020900000209000002090000020BC
:1000840090000020900000209000002090000020AC
:1000940001A0371700408357E709C18B89CB8547F7
:1000A40097160000A384F692C147231FF708730034
:1000B400203073270080218B9387818009CB73279D
:1000C400008023A4E18098435D9B731007800100A6
:1000D400010037170040930670052300D7049306E8
:1000E40080FA2300D704010001008346B70493F685
:1000F400F60DA305D7042300070473260080944358
:10010400A18AD18E7390068023A40180010001008E
:1001140093760502638406180347A700118B25E72D
:1001240073270080218B09CB7327008023A4E180EF
:1001340098435D9B7310078001000100371700404E
:10014400930670052300D704930680FA2300D7048E
:10015400010001008346A70093E646002305D7006B
:1001640023000704F32600809843218B558F7310D6
:10017400078023A40180010001001307004B010044
:1001840001007D176DFF73270080218B09CB732736
:10019400008023A4E18098435D9B731007800100D5
:1001A400010037170040930670052300D704930617
:1001B40080FA2300D704010001007D892314A700DD
:1001C400010001000100010023000704F326008060
:1001D4009843218B558F7310078023A4018001005D
:1001E400010073270080218B09CB7327008023A48F
:1001F400E18098435D9B731007800100010037176D
:100204000040930670052300D704930680FA230068
:10021400D7040100010001000100B72600401306C5
:100224001005A383C68023000704F32600809843A7
:10023400218B558F7310078023A4018001000100D6
:1002440073270080218B09CB7327008023A4E180CE
:1002540098435D9B7310078001000100371700402D
:10026400930670052300D704930680FA2300D7046D
:10027400010001008346B70493E60608A305D704EA
:1002840023000704732700809C43A18BD98F7390AC
:10029400078023A401800100010082809376050475
:1002A400638B06140347A700418B25E7732700805F
:1002B400218B09CB7327008023A4E18098435D9BA5
:1002C4007310078001000100371700409306700582
:1002D4002300D704930680FA2300D7040100010009
:1002E4008346A70093E606012305D70023000704ED
:1002F400F32600809843218B558F7310078023A425
:100304000180010001001307007D010001007D1739
:100314006DFF73270080218B09CB7327008023A4F2
:10032400E18098435D9B731007800100010037173B
:100334000040930670052300D704930680FA230037
:10034400D704010001009376F50193E60604231413
:10035400D700010001000100010023000704F32677
:1003640000809843218B558F7310078023A401804C
:1003740001000100130760046310E5047327008083
:10038400218B09CB7327008023A4E18098435D9BD4
:1003940073100780010001003717004093067005B1
:1003A4002300D704930680FA2300D7040100010038
:1003B400B72600400946B5B573270080218B09CBC9
:1003C4007327008023A4E18098435D9B731007800A
:1003D4000100010037170040930670052300D7047D
:1003E400930680FA2300D70401000100B7260040D9
:1003F400130620053DB573270080218B09CB732795
:10040400008023A4E18098435D9B73100780010062
:10041400010037170040930670052300D7049306A4
:1004240080FA2300D704010001008356870093E675
:10043400060C2314D700C5BB4111814601468145F2
:10044400114506C6192CF3270080A18B9386818061
:1004540089CBF327008023A4F1809C42DD9B739019
:10046400078001000100B7170040130770052380BF
:10047400E704130780FA2380E7040100010003C79F
:100484006704136717002383E70423800704732793
:1004940000809C42A18BD98F7390078023A4018094
:1004A40001000100B240410182808146014681453C
:1004B40011456522F3270080A18B1387818089CBA6
:1004C400F327008023A4F1801C43DD9B73900780F5
:1004D40001000100B7170040930670052380D7047C
:1004E400930680FA2380D70401000100FD56239669
:1004F400D70223800704F32600801C43A18BD58FE9
:100504007390078023A4018001000100F327008079
:10051400A18B89CBF327008023A4F1801C43DD9BAE
:100524007390078001000100B7170040930670051F
:100534002380D704930680FA2380D70401000100A6
:1005440083C6670493E616002383D7042380070435
:10055400F32600801C43A18BD58F7390078023A4BE
:1005640001800100010001A0BD473305F50201002F
:100574007D1575FD8280411122C426C206C6AA8457
:10058400014463179400B2402244924441018280A2
:1005940005041305803E4204C13F4180DDB72303B7
:1005A400048015472303E48001002302A480828091
:1005B40083076480E3CE07FE2303048082808307DD
:1005C4006480E3CE07FE0345448082808307648011
:1005D400E3CE07FE2302A4808280411126C44AC2CE
:1005E4004EC006C61377F50BAD47AA892E899544EC
:1005F4006306F70019456537653F8D444E854537D9
:10060400FD59FD1463983401B240A2441249824951
:1006140041018280135509011375F50F453F2209E5
:10062400CDB7011126CC06CEB704080051371545C5
:10063400BD37713769372AC6A53F32459377150010
:1006440089EB136515001375F50FF240E24405615B
:100654008280FD14E9FC0145CDBF397126DC4ADAFC
:100664004ED852D656D45AD25ED006DE62CE66CC6E
:10067400B7E700E07D5783AA070022C603AA470014
:1006840023A0E71823A2E718B71700401307700543
:100694002380E704130780FA2380E70483C7470411
:1006A400930B75FFB684E20793FBFB0F8546AA897B
:1006B4002E8B328937240040E187015763FA760193
:1006C4006308D5008946130700026313D500015758
:1006D400D98F93F7F70FB71C00402382FC0411470E
:1006E4002303E4801305F00F5D3D094CD135636DA0
:1006F4007C11B7050700DA9537870700795563F24F
:10070400E504B3879500636EF702370B0800A94729
:1007140033EB65016399F90689E48144513D2685EB
:100724000DA0DA850945553D05090345F9FFFD147A
:10073400050B693D81C49377FB0FFDF7DD3569FD3A
:100744007D55B7170040130770052380E70413078E
:1007540080FA2380E70403C74704418B2382E7041C
:10076400F250B7E700E023A0571123A24711E25447
:1007740032445259C259325AA25A125B825B724CA9
:10078400E24C21618280A5476395F90685691309C6
:10079400F00FB3069900B3742B01B6941349F9FF13
:1007A400B3749900856B33796901416B9387F9FFC1
:1007B400B3F7270199E363FC340193D94900C14796
:1007C400E3E637FF99BF0569C1697D19D9B71305F8
:1007D400800D6388690113050002638479011305A0
:1007E4001008CA85DD3B353D21DD4E99B384344183
:1007F400D9B7DA852D45D533CA94E30099F20509B2
:100804007D3BA30FA9FED5BF9387F9FF93F7F70F9D
:100814006361FC0C83C71C0413073008631FF704CF
:1008240037070800636BEB04B3079B00B70610009F
:1008340063F5D704334BEB0089476393F90689804A
:10084400D549E38C04ECDA850945413B11090327BA
:10085400C9FF91472320E48003076480E34E07FE29
:1008640023033481FD17EDFBFD14110B81C4937731
:10087400FB0FE9FF7D3371F5E1B5B717004003C7FE
:100884005704B70708001377070219E3B78707006F
:100894007955E378FBEA33079B00E3FFE7F855B5A6
:1008A4008547E382F9F2DA852D45053B9389F4FF08
:1008B400E38504E6293393F7390091EB832604801A
:1008C4000327090093074900E39AE6E43E89CE84AE
:1008D400F1BFB5476396F9001305900BC93135BDD7
:1008E400B1471305B00AE38BF9FE99476391F90404
:1008F400B7050800B365BB002D45C53181448D4B58
:10090400A149753963967401832704802320F90073
:100914008504E39834FF8327048013172B01635560
:1009240007002312F900D5BB2322F900FDB39D472C
:100934006399F90281451305B0044531BD44232070
:10094400090023220900FD599D3993F77400CA97C1
:1009540003C70700FD14398D2380A700E39634FFF5
:100964006DBBA1476392F9046D398144630D0B009B
:100974008D479304C0036308FB00930400056304DC
:100984008B01930440041375C507E30895D81945F2
:10099400393139390545213126850D3909453D312E
:1009A4004931E31C05D669BB91476399F9001305E6
:1009B4006006F536F53E130590090DB7E38F09D4AB
:0409C400F154A9BB86
:1009C80097110020938101801771002013010163A2
:1009D8001305400097F5FF1F938545621706002011
:1009E800130606FE63FAC5008322050023A05500FE
:1009F80011059105E3EAC5FE170500001305052C4E
:100A0800970500209385C5FB17060020130686FB73
:100A180063FAC5008322050023A05500110591053E
:100A2800E3EAC5FE170500201305C5F99385C180C3
:100A38006377B500232005001105E36DB5FEFD427F
:100A4800739002BC8D427390428093028008739029
:100A5800023097F2FF1F9382625A93E2320073903A
:100A6800523097020000938202017390123473008F
:100A7800203001118545414506CE22CC26CA4AC8F8
:100A88004EC652C4FD2081454145792237070400EE
:100A9800B7E700E023A0E710371400408327840C51
:100AA8008D4537050400D98F2324F40CD9208327DA
:100AB800840C370708008D45D98F2324F40C37059B
:100AC8000800BD647D20170900201309E9EF93840D
:100AD800F4A5B7090400170A0020130ABAEE97070D
:100AE800002083C727EE01478326090063FDD4024F
:100AF80099EF9707002023A907EC8327C40CB3E7D5
:100B080037012326F40C8327090063F1F4069707BD
:100B1800002023AB07EA8327840C0547B3E7370196
:100B28002324F40C81478326090085061706002034
:100B3800232CD6E883460A0093F6F60FD5D609C7C4
:100B4800170700202300F7E88327840C37070800DD
:100B580013052003B98F2324F40C97000020E780A5
:100B680040A197070020A38F07E495BF0547854755
:100B78005DBF914763EEB702170700001307C7125E
:100B88008A05BA959C41BA978287B717004003A790
:100B9800470D1345F5FF698F23AAE70C03A7070D37
:100BA800698F23A8E70C03A7070C798D23A0A70C4E
:100BB8008280B717004083A6470D1347F5FFF98ECB
:100BC80023AAD70C83A6070D558D23A8A70C83A6A7
:100BD800070C758F23A0E70C8280B717004003A786
:100BE800470D498F23AAE70C03A7070D1345F5FF07
:100BF80045BFB717004083A6470D1347F5FF758F0C
:100C080023AAE70C03A7070C598D4DB7B717004067
:100C180003A7470D498FEDB79357E50093F70730C2
:100C2800C98FC2070547C1836382E5048DC109479F
:100C3800638DE5040D476380E50637170040231FE1
:100C4800F70883562709D58F2319F70882803717A5
:100C580000400356670993C6F7FFF18E231BD70898
:100C68008326C70C558D2326A70CC1BF3717004014
:100C78000356670993C6F7FFF18E231BD70883260F
:100C8800870C558D2324A70C4DBF3717004083567A
:100C98006709DD8EE1B73717004083566709DD8E97
:100CA800E9BF0000E6FEFFFF0EFFFFFF36FFFFFF74
:080CB8004EFFFFFF68FFFFFF84
:00000001FF
